:020000040800F2
:1000000000800220197600086976000869760008E9
:10001000697600086976000869760008000000002B
:1000200000000000000000000000000069760008E9
:10003000697600080000000069760008455B00084A
:100040006976000869760008697600086976000814
:100050006976000869760008697600086976000804
:100060006976000869760008697600084D5B00082B
:1000700069760008697600086976000869760008E4
:1000800069760008697600085D5B000869760008FB
:1000900069760008697600086976000869760008C4
:1000A0006D5B0008697600086976000869760008CB
:1000B0007D5B000869760008000000006976000892
:1000C0006976000869760008697600086976000894
:1000D00069760008697600088D5B00089D5B000862
:1000E0006976000869760008000000000000000042
:1000F0000000000000000000000000000000000000
:100100000000000069760008000000006976000821
:10011000AD5B0008000000006976000800000000E8
:100120006976000869760008697600086976000833
:10013000697600086976000869760008000000000A
:100140006976000869760008697600086976000813
:100150006976000869760008697600086976000803
:1001600069760008697600086976000800000000DA
:100170000000000069760008000000000000000098
:1001800069760008697600086976000869760008D3
:08019000697600080000000080
:1001A00010B5054C237833B9044B13B10448AFF3B1
:1001B00000800123237010BDB00200200000000069
:1001C00038D0000808B5034B1BB103490348AFF30F
:1001D000008008BD00000000B402002038D00008F4
:1001E00081F0004102E000BF83F0004330B54FEAE8
:1001F00041044FEA430594EA050F08BF90EA020F55
:100200001FBF54EA000C55EA020C7FEA645C7FEAE7
:10021000655C00F0E2804FEA5454D4EB5555B8BF0A
:100220006D420CDD2C4480EA020281EA030382EA7B
:10023000000083EA010180EA020281EA0303362D0D
:1002400088BF30BD11F0004F4FEA01314FF4801CE0
:100250004CEA113102D0404261EB410113F0004FF2
:100260004FEA03334CEA133302D0524263EB4303A9
:1002700094EA050F00F0A780A4F10104D5F1200E47
:100280000DDB02FA0EFC22FA05F2801841F10001A2
:1002900003FA0EF2801843FA05F359410EE0A5F176
:1002A00020050EF1200E012A03FA0EFC28BF4CF0A7
:1002B000020C43FA05F3C01851EBE37101F000455D
:1002C00007D54FF0000EDCF1000C7EEB00006EEB6A
:1002D0000101B1F5801F1BD3B1F5001F0CD34908F4
:1002E0005FEA30004FEA3C0C04F101044FEA44524B
:1002F00012F5800F80F09A80BCF1004F08BF5FEAD2
:10030000500C50F1000041EB045141EA050130BDB1
:100310005FEA4C0C404141EB010111F4801FA4F154
:100320000104E9D191F0000F04BF01460020B1FAA9
:1003300081F308BF2033A3F10B03B3F120020CDAE1
:100340000C3208DD02F1140CC2F10C0201FA0CF0BF
:1003500021FA02F10CE002F11402D8BFC2F1200C24
:1003600001FA02F120FA0CFCDCBF41EA0C019040DA
:10037000E41AA2BF01EB0451294330BD6FEA040423
:100380001F3C1CDA0C340EDC04F11404C4F120020E
:1003900020FA04F001FA02F340EA030021FA04F320
:1003A00045EA030130BDC4F10C04C4F1200220FA77
:1003B00002F001FA04F340EA0300294630BD21FAB5
:1003C00004F0294630BD94F0000F83F4801306BF7B
:1003D00081F480110134013D4EE77FEA645C18BF6F
:1003E0007FEA655C29D094EA050F08BF90EA020F06
:1003F00005D054EA000C04BF1946104630BD91EAFE
:10040000030F1EBF0021002030BD5FEA545C05D100
:100410004000494128BF41F0004130BD14F580043F
:100420003CBF01F5801130BD01F0004545F0FE41B3
:1004300041F470014FF0000030BD7FEA645C1ABFE8
:10044000194610467FEA655C1CBF0B46024650EA1F
:10045000013406BF52EA033591EA030F41F400214B
:1004600030BD00BF90F0000F04BF0021704730B5D1
:100470004FF4806404F132044FF000054FF00001A6
:1004800050E700BF90F0000F04BF0021704730B567
:100490004FF4806404F1320410F0004548BF40423C
:1004A0004FF000013EE700BF42004FEAE2014FEA91
:1004B00031014FEA02701FBF12F07F4393F07F4F6C
:1004C00081F06051704732F07F4208BF704793F06F
:1004D0007F4F04BF41F40021704730B54FF4607482
:1004E00001F0004521F000411CE700BF50EA010285
:1004F00008BF704730B54FF000050AE050EA01022E
:1005000008BF704730B511F0004502D5404261EB9D
:1005100041014FF4806404F132045FEA915C3FF4DE
:10052000D8AE4FF003025FEADC0C18BF03325FEA7B
:10053000DC0C18BF033202EBDC02C2F1200300FA2C
:1005400003FC20FA02F001FA03FE40EA0E0021FA51
:1005500002F11444BDE600BF70B54FF0FF0C4CF43F
:10056000E06C1CEA11541DBF1CEA135594EA0C0FF1
:1005700095EA0C0F00F0DEF82C4481EA030621EA2C
:100580004C5123EA4C5350EA013518BF52EA033567
:1005900041F4801143F4801338D0A0FB02CE4FF019
:1005A0000005E1FB02E506F00042E0FB03E54FF049
:1005B0000006E1FB03569CF0000F18BF4EF0010E41
:1005C000A4F1FF04B6F5007F64F5407404D25FEA3D
:1005D0004E0E6D4146EB060642EAC62141EA5551F0
:1005E0004FEAC52040EA5E504FEACE2EB4F1FD0C32
:1005F00088BFBCF5E06F1ED8BEF1004F08BF5FEAB0
:10060000500E50F1000041EB045170BD06F0004661
:1006100046EA010140EA020081EA0301B4EB5C040E
:10062000C2BFD4EB0C0541EA045170BD41F4801106
:100630004FF0000E013C00F3AB8014F1360FDEBF2B
:10064000002001F0004170BDC4F10004203C35DA07
:100650000C341BDC04F11404C4F1200500FA05F38A
:1006600020FA04F001FA05F240EA020001F000422B
:1006700021F0004110EBD37021FA04F642EB0601A1
:100680005EEA430E08BF20EAD37070BDC4F10C04CB
:10069000C4F1200500FA04F320FA05F001FA04F28F
:1006A00040EA020001F0004110EBD37041F100017B
:1006B0005EEA430E08BF20EAD37070BDC4F1200586
:1006C00000FA05F24EEA020E20FA04F301FA05F2EE
:1006D00043EA020321FA04F001F0004121FA04F296
:1006E00020EA020000EBD3705EEA430E08BF20EA66
:1006F000D37070BD94F0000F0FD101F000464000A0
:1007000041EB010111F4801F08BF013CF7D041EA21
:10071000060195F0000F18BF704703F00046520025
:1007200043EB030313F4801F08BF013DF7D043EAF6
:100730000603704794EA0C0F0CEA135518BF95EAAC
:100740000C0F0CD050EA410618BF52EA4306D1D133
:1007500081EA030101F000414FF0000070BD50EA52
:10076000410606BF1046194652EA430619D094EADC
:100770000C0F02D150EA013613D195EA0C0F05D1C6
:1007800052EA03361CBF104619460AD181EA03011A
:1007900001F0004141F0FE4141F470014FF00000D2
:1007A00070BD41F0FE4141F4780170BD70B54FF06D
:1007B000FF0C4CF4E06C1CEA11541DBF1CEA1355ED
:1007C00094EA0C0F95EA0C0F00F0A7F8A4EB0504CF
:1007D00081EA030E52EA03354FEA013100F08880C6
:1007E0004FEA03334FF0805545EA131343EA12638F
:1007F0004FEA022245EA111545EA10654FEA002644
:100800000EF000419D4208BF964244F1FD0404F5FC
:10081000407402D25B084FEA3202B61A65EB030558
:100820005B084FEA32024FF480104FF4002CB6EB15
:10083000020E75EB030E22BFB61A754640EA0C0095
:100840005B084FEA3202B6EB020E75EB030E22BFD5
:10085000B61A754640EA5C005B084FEA3202B6EB16
:10086000020E75EB030E22BFB61A754640EA9C00D5
:100870005B084FEA3202B6EB020E75EB030E22BFA5
:10088000B61A754640EADC0055EA060E18D04FEA63
:10089000051545EA16754FEA06164FEAC30343EA03
:1008A00052734FEAC2025FEA1C1CC0D111F4801FD0
:1008B0000BD141EA00014FF000004FF0004CB6E7C9
:1008C00011F4801F04BF01430020B4F1FD0C88BF68
:1008D000BCF5E06F3FF6AFAEB5EB030C04BFB6EB73
:1008E000020C5FEA500C50F1000041EB045170BD66
:1008F0000EF0004E4EEA113114EB5C04C2BFD4EB93
:100900000C0541EA045170BD41F480114FF0000E16
:10091000013C90E645EA060E8DE60CEA135594EA92
:100920000C0F08BF95EA0C0F3FF43BAF94EA0C0F95
:100930000AD150EA01347FF434AF95EA0C0F7FF40A
:1009400025AF104619462CE795EA0C0F06D152EA5E
:1009500003353FF4FDAE1046194622E750EA410642
:1009600018BF52EA43067FF4C5AE50EA41047FF453
:100970000DAF52EA43057FF4EBAE12E74FF0FF3CB8
:1009800006E000BF4FF0010C02E000BF4FF0010C89
:100990004DF804CD4FEA410C7FEA6C5C4FEA430C02
:1009A00018BF7FEA6C5C1BD001B050EA410C0CBF51
:1009B00052EA430C91EA030F02BF90EA020F0020B3
:1009C000704710F1000F91EA030F58BF994208BF1A
:1009D00090422CBFD8176FEAE37040F001007047D7
:1009E0004FEA410C7FEA6C5C02D150EA013C07D12E
:1009F0004FEA430C7FEA6C5CD6D152EA033CD3D079
:100A00005DF8040B704700BF8446104662468C4672
:100A10001946634600E000BF01B5FFF7B7FF0028A5
:100A200048BF10F1000F01BD4DF808EDFFF7F4FFCE
:100A30000CBF012000205DF808FB00BF4DF808ED59
:100A4000FFF7EAFF34BF012000205DF808FB00BF7C
:100A50004DF808EDFFF7E0FF94BF012000205DF89E
:100A600008FB00BF4DF808EDFFF7CEFF94BF012053
:100A700000205DF808FB00BF4DF808EDFFF7C4FF4C
:100A800034BF012000205DF808FB00BF4FEA410C95
:100A90007FEA6C5C02D150EA013C0AD14FEA430C78
:100AA0007FEA6C5C02D152EA033C02D14FF00000B5
:100AB00070474FF0010070474FEA410212F50012F3
:100AC00015D211D56FF47873B3EB625212D94FEA95
:100AD000C12343F0004343EA505311F0004F23FA7F
:100AE00002F018BF404270474FF00000704750EAD4
:100AF000013005D111F0004008BF6FF00040704791
:100B00004FF00000704700BF7BB972B90029BEBF2B
:100B100000204FF0004106E008BF00281CBF6FF026
:100B200000414FF0FF3000F0F7B9ADF1080C6DE96E
:100B300004CE002909DB002B1ADB00F087F8DDF872
:100B400004E0DDE9022304B07047404261EB41015B
:100B5000002B1BDB00F07AF8DDF804E0DDE902236E
:100B600004B0404261EB4101524263EB43037047E2
:100B7000524263EB430300F069F8DDF804E0DDE97D
:100B8000022304B0404261EB41017047524263EBE3
:100B9000430300F05BF8DDF804E0DDE9022304B074
:100BA000524263EB4303704753B94AB9002908BF67
:100BB00000281CBF4FF0FF314FF0FF3000F0ACB900
:100BC000ADF1080C6DE904CE00F040F8DDF804E06A
:100BD000DDE9022304B0704738B500220023044643
:100BE0000D46FFF72BFF28B920462946BDE83840BF
:100BF00000F00AB8204605F1004100F005F8404237
:100C000061EB410138BD00BFD0B500220D4B064657
:100C10000F46FFF7A1FC00F081F90446FFF722FC24
:100C20000022094BFFF798FC02460B463046394636
:100C3000FFF7DAFA00F072F9002223461043194652
:100C4000D0BD00BF0000F03D0000F0412DE9F047AD
:100C5000089E04468846002B4BD18A42154667D928
:100C6000B2FA82F24AB1C2F1200701FA02F320FA85
:100C700007F7954047EA030894404FEA154E230CC6
:100C8000B8FBFEF71FFA85FC0EFB178843EA084302
:100C900007FB0CF1994209D9EB1807F1FF3080F0FE
:100CA0001B81994240F21881023F2B445B1AA4B287
:100CB000B3FBFEF00EFB103344EA034400FB0CFCD4
:100CC000A44509D92C1900F1FF3380F00781A44510
:100CD00040F2048102382C4440EA0740A4EB0C04A3
:100CE00000271EB1D4400023C6E900433946BDE8C1
:100CF000F0878B4209D9002E00F0EB800027C6E96F
:100D0000000138463946BDE8F087B3FA83F7002F73
:100D100047D18B4202D3824200F2FA80841A61EBFF
:100D2000030301209846002EE0D0C6E90048DDE725
:100D300002B9FFDEB2FA82F2002A40F08F80491B2E
:100D40004FEA154E1FFA85F80127B1FBFEFC230C74
:100D50000EFB1C1143EA014308FB0CF1994207D931
:100D6000EB180CF1FF3002D2994200F2CD8084469C
:100D7000591AA3B2B1FBFEF00EFB101443EA04446F
:100D800008FB00F8A04507D92C1900F1FF3302D267
:100D9000A04500F2B6801846A4EB080440EA0C40D7
:100DA0009FE7C7F1200CBB4022FA0CFE4EEA030E6F
:100DB00001FA07F420FA0CF521FA0CF34FEA1E4869
:100DC0002543B3FBF8F92C0C08FB19331FFA8EFAF4
:100DD00044EA034309FB0AF49C4202FA07F200FAD0
:100DE00007F10BD91EEB030309F1FF3080F0878078
:100DF0009C4240F28480A9F1020973441B1BADB2EE
:100E0000B3FBF8F008FB103345EA034400FB0AFA91
:100E1000A24508D91EEB040400F1FF336BD2A245B2
:100E200069D90238744440EA0940A0FB0289A4EB66
:100E30000A044C45C2464B4654D351D0002E69D0CB
:100E4000B1EB0A0564EB030404FA0CFCFD40FC4022
:100E50004CEA0505C6E90054002747E7C2F1200324
:100E600020FA03F7954001FA02F021FA03F34FEA62
:100E7000154E3843010CB3FBFEF71FFA85F80EFB45
:100E8000173341EA034107FB08F38B4204FA02F4EB
:100E900007D9691807F1FF3C2FD28B422DD9023FA9
:100EA0002944CB1A81B2B3FBFEF00EFB103341EAAA
:100EB000034100FB08F38B4207D9691800F1FF3C9E
:100EC00017D28B4215D902382944C91A40EA07477C
:100ED0003BE73746304609E70746E7E61846FBE6B4
:100EE0004145ABD2B8EB020A69EB0E02013813465A
:100EF000A4E76046E9E7184695E76746D1E78146EB
:100F00007CE702382C4447E7ACF1020C2B442FE776
:100F1000384608E73746E9E6704700BF4A0011D275
:100F200012F5001211D20DD56FF47873B3EB625243
:100F30000ED44FEAC12343F0004343EA505323FA4F
:100F400002F070474FF00000704750EA013002D1C4
:100F50004FF0FF3070474FF000007047034613F822
:100F6000012B002AFBD1181A01387047000000003D
:100F700001F0FF01102A2BDB10F0070F08D010F84A
:100F8000013B013A8B422DD010F0070F42B3F6D14E
:100F9000F0B441EA012141EA014122F007047FF067
:100FA00000070023F0E80256083C85EA010586EABE
:100FB000010685FA47F5A3FA87F586FA47F6A5FAFA
:100FC00087F68EB9EED1F0BC01F0FF0102F0070206
:100FD00032B110F8013B013A83EA010313B1F8D1B1
:100FE0000020704701387047002D06BF3546033892
:100FF000073815F0010F07D1013015F4807F02BFCB
:10100000013015F4C03F0130F0BC0138704700BF1B
:1010100010F8012B11F8013B012A28BF9A42F7D0A2
:10102000D01A70474FEA4102B2F1E04324BFB3F552
:10103000001CDCF1FE5C0DD901F0004C4FEAC0024F
:101040004CEA5070B2F1004F40EB830008BF20F033
:101050000100704711F0804F21D113F13872BCBFED
:1010600001F00040704741F480114FEA5252C2F142
:101070001802C2F1200C10FA0CF320FA02F018BF8B
:1010800040F001004FEAC1234FEAD32303FA0CFCDE
:1010900040EA0C0023FA02F34FEA4303CCE77FEA6D
:1010A000625307D150EA01331EBF4FF0FE4040F4B7
:1010B0004000704701F0004040F0FE4040F4000066
:1010C000704700BF10B50446094B1868094BA3FBD5
:1010D0000030800900F0D6FC08B1012010BD0022CC
:1010E00021464FF0FF3000F08DFC0020F6E700BFF6
:1010F00054000020D34D621010B5094A136843F420
:1011000080731360032000F06BFC0020FFF7DAFF10
:1011100010B10124204610BD044604F0FBFCF9E7A1
:1011200000200240024A136801331360704700BF79
:1011300048050020014B1868704700BF4805002093
:1011400030B583B000230193002800F0E08004460E
:10115000836D03B323689A6812F0005F05D09A6824
:1011600022F0204222F03F029A602268936813F036
:10117000805F1DD1936823F0104323F03F0343F0B9
:1011800080539360634B1B689B09634AA2FB032354
:101190009B09019309E003F0C7F80023E36584F895
:1011A0005430D7E7019B013B0193019B002BF9D100
:1011B00023689A6812F0805F7AD1A26D42F0100223
:1011C000A265E26D42F00102E26501209A6812F028
:1011D000040F6FD00121A26D12F0100F40F090802B
:1011E000002940F08D80A26D22F4817242F002024B
:1011F000A2659B6813F0010F0BD1484B9B6813F05D
:10120000010F06D1636846498A6822F47C121343B1
:101210008B60627E636B43EA4233E2681343A268E9
:10122000134394F8202043EA0243012A44D0A26ADF
:1012300022B102F47072E16A0A4313432168CD6857
:10124000384A2A401343CB6023689A6812F0040F8F
:1012500037D001219A6812F0080F34D00122C1B9A9
:10126000BAB9E26C217E42EA813294F8301042EA47
:101270004101DA6822F4804222F006020A43DA6071
:1012800094F83830012B20D02268136923F0010331
:1012900013612369012B2AD02268136B23F00F03FB
:1012A0001363A36D23F0030343F00103A3652CE054
:1012B00000208BE700218EE7626A013A43EA42434D
:1012C000B5E70021C6E70022C9E721680B6923F4CE
:1012D000FF6323F00403E26B256C2A43656C2A4309
:1012E000A56C2A43134343F001030B61D1E7216846
:1012F0000B6B23F00F03E269013A13430B63D0E752
:10130000A36D43F01003A365012003B030BD01209D
:10131000FBE700BF54000020632D3E050000045091
:101320000003045007C0F0FF70477047704770B566
:10133000044603681D685E6815F0020F10D016F0B1
:10134000020F0DD0836D13F0100F03D1836D43F4A2
:1013500000638365204600F041FB236802221A6087
:1013600015F0040F02D016F0040F05D115F0080F88
:101370003AD016F0080F37D0A36D13F0100F03D139
:10138000A36D43F40073A3652368DA6812F4406F19
:1013900024D1DA6812F4005F20D11A6812F0080F25
:1013A0001CD09A6812F0040F10D15A6822F00C0277
:1013B0005A60A36D23F48073A365A36D13F4805F5B
:1013C0000CD1A36D43F00103A36507E0A36D43F0C7
:1013D0001003A365E36D43F00103E3652046FFF7C7
:1013E000A3FF23680C221A6015F0200F02D016F01C
:1013F000200F05D115F0400F4CD016F0400F49D00A
:10140000A36D13F0100F03D1A36D43F40053A36534
:101410002368DA6C12F0C00F2AD10121DA6812F4C5
:10142000406F27D10120DA6831B912F0007F2BD14B
:1014300050B312F4005F27D1196811F0400F23D088
:1014400012F4001F20D19A6812F0080F14D15A68C4
:1014500022F060025A60A36D23F48053A365A36D4C
:1014600013F4807F10D1A36D43F00103A3650BE05B
:101470000021D3E70020D6E7A36D43F01003A36556
:10148000E36D43F00103E365204600F0A3FA23680F
:1014900060221A6015F0800F02D016F0800F2DD157
:1014A00015F4807F02D016F4807F32D115F4007FCE
:1014B00002D016F4007F38D115F0100F17D016F0B7
:1014C000100F14D0636B23B12368DB6813F0010F96
:1014D0000AD0A36D43F48063A365E36D43F0020378
:1014E000E3652046FFF722FF236810221A6015F4F7
:1014F000806F02D016F4806F23D170BDA36D43F4CA
:101500008033A3652046FFF710FF236880221A600E
:10151000C6E7A36D43F40033A365204600F05CFAF0
:1015200023684FF480721A60C0E7A36D43F48023F0
:10153000A365204600F051FA23684FF400721A6048
:10154000BAE7A36D43F48043A365E36D43F008035A
:10155000E36523684FF480621A60204600F03BFA8E
:10156000CBE70000F0B482B00022019290F8542042
:10157000012A00F028820346012280F854200268E4
:10158000926812F0040F0AD0826D42F02002826548
:101590000120002283F8542002B0F0BC70474A6852
:1015A000052A09D8023A032A00F29880DFE802F0FF
:1015B000028C8F920C224A601E684D680C6830368F
:1015C0002A0A920002F00C02B05805F01F051F27EE
:1015D000AF4020EA0700C4F38464AC402043B0501D
:1015E0001A68906810F0040F7BD00120946814F002
:1015F000080F78D00124002833D1002C31D18C6819
:10160000B4F1004F71D00E681432700E800000F0FB
:1016100004001558C6F304560727B74025EA070506
:10162000B4402C4314501868426922F000424261D1
:1016300048691C68E268C2F3C102520000FA02F273
:101640000D69042D66D00E68603454F82570B948D1
:10165000384006F0F8463243104340F0004044F86A
:1016600025001868826812F0010F16D10A68CD684B
:10167000D0F8B040C2F3120624EA060405F01806BA
:10168000AD4DF5402A40C2F312022243C0F8B0200B
:10169000C868AA4A904200F091800A68A8490A42A4
:1016A00000F08D81A749896801F0E074A648824264
:1016B00000F02281A548824200F05A81A44882426B
:1016C00000F06A81002064E712224A6074E7182261
:1016D0004A6071E74FF480724A606DE706224A6003
:1016E0006AE7002082E7002485E70C681432600E68
:1016F000800000F004001558C4F30454072606FACD
:1017000004F425EA040515501868426942F00042C5
:1017100042618DE7206EC0F384650A68C2F3120649
:1017200066BBC2F3846295422DD01C68606EC0F324
:1017300084650A68C2F312064EBBC2F38462954206
:101740002AD01C68A06EC0F384650A68C2F3120632
:1017500036BBC2F38462954227D01C68E06EC0F3AA
:1017600084650A68C2F312061EBBC2F38462954206
:101770007FF477AF20F00040E06672E792FAA2F2C1
:10178000B2FA82F2CFE720F000402066CDE792FA6D
:10179000A2F2B2FA82F2D2E720F000406066D0E70F
:1017A00092FAA2F2B2FA82F2D5E720F00040A066E7
:1017B000D3E792FAA2F2B2FA82F2D8E71D680A6879
:1017C000C2F3120696BB900E013000F01F000928EC
:1017D0008CBF00200120002852D09EBB940E013403
:1017E000A40604F0F844B6BB900E013000F01F07C9
:1017F0000120B8400443C6BB920E013202F01F0222
:1018000002EB4202120522438C681435500E800010
:1018100000F004002E58C2F304520727974026EA2E
:10182000070604FA02F232432A5036E792FAA2F08F
:10183000B0FA80F0013000F01F0009288CBF0020B2
:101840000120C8E792FAA2F4B4FA84F40134A406A1
:1018500004F0F844C7E792FAA2F0B0FA80F0013041
:1018600000F01F070120B840C4E792FAA2F2B2FAD2
:1018700082F2013202F01F0202EB42021205C2E7BD
:10188000CEB9940E0134A40604F0F844E6B9900EE3
:10189000013000F01F070120B8400443F6B9900E54
:1018A000013000F01F0000EB40021E3A120542F02A
:1018B00000722243A8E792FAA2F4B4FA84F4013445
:1018C000A40604F0F844E1E792FAA2F0B0FA80F03E
:1018D000013000F01F070120B840DEE792FAA2F0C5
:1018E000B0FA80F0013000F01F0000EB40021E3A19
:1018F000120542F00072DCE711F4000F7FF4DAAE5B
:101900001968144A914201D0002042E644F40002D2
:101910000C48816821F0E0710A4382600E4A126827
:1019200092090E49A1FB0212920902EB42029100B8
:10193000019118E000F0FF03FFFF070000007F4067
:101940000000088000030450000052C7000084CB50
:10195000010000800000045054000020632D3E056B
:10196000019A013A0192019A002AF9D1002010E669
:1019700011F0807F7FF4A2AE1968144A914201D021
:10198000002006E644F080721148816821F0E07181
:101990000A4382600020FCE511F4800F11D1196820
:1019A0000A4A914201D00020F3E544F4800208483D
:1019B000816821F0E0710A4382600020E9E500209F
:1019C000E7E50020E5E50220E6E500BF0000045061
:1019D000000304507047704770477047704700001D
:1019E000074AD36823F4E0631B041B0C000200F4D5
:1019F000E060184340F0BF6040F40030D0607047B2
:101A000000ED00E030B4174BDB68C3F30223C3F1F1
:101A10000704042C28BF04241D1D062D18D9033BE0
:101A20004FF0FF3505FA04F421EA0401994005FA64
:101A300003F322EA0303194300280BDB0901C9B2AF
:101A400000F1604000F5614080F8001330BC704741
:101A50000023E5E700F00F000901C9B2024B195459
:101A6000F4E700BF00ED00E014ED00E000F01F021D
:101A7000400901239340024A42F82030704700BFDA
:101A800000E100E00138B0F1807F0AD2064B5860D7
:101A9000064AF02182F823100020986007221A607D
:101AA00070470120704700BF10E000E000ED00E04B
:101AB000002869D010B403460168344A914245D8E1
:101AC000334A0A443349A1FB0212120992004264CC
:101AD000314A0264022283F825201868016821F443
:101AE000FF4121F070019A68DC6822431C6922439F
:101AF0005C6922439C692243DC6922431C6A2243BD
:101B00000A4302609A68B2F5804F15D0196C224AD8
:101B1000914226D0214A1168586C00F01C040F2015
:101B2000A04021EA00011160116858685C6C04F063
:101B30001C04A040014311600020D863012283F8F7
:101B4000252083F824005DF8044B7047144A0A44AA
:101B50001049A1FB0212120992004264114A026468
:101B6000B8E7A8321168586C00F01C040F20A040A0
:101B700021EA00011160116858685C6C04F01C04D3
:101B8000A04001431160D7E70120704707040240DD
:101B9000F8FFFDBFCDCCCCCC00000240A804024031
:101BA000F8FBFDBF0004024008B590F82530DBB219
:101BB000022B03D00423C363012008BD026813680D
:101BC00023F00E0313600268136823F0010313600F
:101BD000436C03F01C03016C012202FA03F34B6017
:101BE00080F82520002380F82430836B13B19847B8
:101BF0000020E2E70020E0E738B5036C19680468CC
:101C00002568436C03F01C0304229A400A4215D055
:101C100015F0040F12D0236813F0200F03D12368AE
:101C200023F004032360436C03F01C02016C0423C3
:101C300093404B60036B03B1984738BD02229A4032
:101C40000A421CD015F0020F19D0236813F0200FA0
:101C500006D1236823F00A032360012380F825308E
:101C6000436C03F01C02016C022393404B60002381
:101C700080F82430C36A002BDFD09847DDE70822C4
:101C800002FA03F30B42D8D015F0080FD5D0236821
:101C900023F00E032360436C03F01C03016C01224C
:101CA00002FA03F34B60C26380F82520002380F81A
:101CB0002430436B002BC0D09847BEE7F0B482B00D
:101CC000002336E0042400E00024B4403C43023505
:101CD0005B4E46F825405B4C2568D44304EA050674
:101CE0004F6817F4803F01D042EA0506554D2E603B
:101CF0006D6804EA05064F6817F4003F01D042EA18
:101D00000506504D6E60AD6804EA05064F6817F48D
:101D1000801F01D042EA05064A4DAE60ED682C40B6
:101D20004E6816F4001F01D042EA0504454AD4600B
:101D300001330A6832FA03F47ED001249C40224029
:101D4000F6D04D68022D01D0122D10D1DE080836D4
:101D500050F826C003F00705AF000F25BD402CEA60
:101D6000050C0D69BD4045EA0C0540F82650066893
:101D70005F000325BD40ED4305EA060C4E6806F002
:101D80000306BE4046EA0C0606604E6806F1FF3CBC
:101D9000BCF1010F03D9112E01D0122E10D186688B
:101DA00005EA060CCE68BE4046EA0C068660466828
:101DB00026EA04044E68C6F300169E402643466099
:101DC000C46825408C68BC402C43C4604C6814F047
:101DD000805FADD01C4C256E45F001052566246E54
:101DE00004F001040194019C9D08AE1C144C54F8AD
:101DF000267003F00304A6000F24B44027EA04076A
:101E0000B0F1904F3FF460AF104CA0420ED004F5FB
:101E10008064A0420CD004F58064A0420AD004F58E
:101E20008064A0423FF44EAF07244EE701244CE704
:101E300002244AE7032448E702B0F0BC704700BF21
:101E4000000001400004014000100240000400486E
:101E50000369194201D100207047012070470AB977
:101E60008162704781617047024A136843F480734E
:101E70001360704700700040024B186800F4C060A7
:101E8000704700BF00700040B0F5007F0FD01F4BBF
:101E90001B6803F4C063B3F5806F34D01B4A13682A
:101EA00023F4C06343F48063136000207047174B32
:101EB0001B6803F4C063B3F5007F22D0134A136894
:101EC00023F4C06343F400731360114B1A68322388
:101ED00003FB02F30F4AA2FB03239B0C013300E038
:101EE000013B0A4A526912F4806F01D0002BF7D1EE
:101EF000064B5B6913F4806F01D10020704703200B
:101F00007047002070470020704700BF00700040FD
:101F10005400002083DE1B4330B583B00546204BC0
:101F20009B6D13F0805F0BD0FFF7A6FFB0F5007F2D
:101F300017D0802D1FD82DD0702D2DD000211BE063
:101F4000174CA36D43F08053A365A36D03F080533A
:101F50000193019BFFF790FFA36D23F08053A365CE
:101F6000E4E7802D03D9A02D03D9022104E000214C
:101F700002E0012100E003210A4A136823F007036D
:101F80000B431360136803F007038B4206D0012054
:101F900003B030BD0221EFE70121EDE70020F7E7B4
:101FA0000010024000200240314A9368D26802F0DB
:101FB000030213F00C030AD00C2B06D0042B1FD005
:101FC000082B20D00020014610E0012AF6D1284A33
:101FD000126812F0080F0CD1254AD2F89420C2F3EF
:101FE0000322244951F8221043B100200C2B0DD0BC
:101FF00070471F4A1268C2F30312F2E70846F5E77A
:102000001D480021F2E71D480021EFE7184BDA6870
:1020100002F00302DB68C3F302130133022A0AD081
:10202000032A1AD0B1FBF3F3114AD068C0F306209B
:1020300000FB03F008E01048B0FBF3F30C4AD06853
:10204000C0F3062000FB03F0094BDB68C3F34163D8
:1020500001335B00B0FBF3F0CAE70848B0FBF3F3D1
:10206000034AD068C0F3062000FB03F0ECE700BF92
:102070000010024050D000080024F40000127A0042
:10208000002800F0C182F0B583B00446AC4B9D68D7
:1020900005F00C05DE6806F00306036813F0100F68
:1020A0005DD0E5B10C2D18D0A369002B00F0B780EE
:1020B000A34A136843F001031360FFF73BF8074698
:1020C0009F4B1B6813F0020F40F09680FFF732F829
:1020D000C01B0228F4D90323A2E2012EE4D1984BBD
:1020E0001B6813F0020F03D0A369002B00F08F824E
:1020F000206A934B1B6813F0080F5DD0904B1B6850
:1021000003F0F00398425ED9FFF706FF002840F085
:1021100080828B4B1A6842F008021A601A6822F01B
:10212000F002216A0A431A605A6822F47F42E16988
:1021300042EA01225A60FFF737FF814B9B68C3F3E5
:102140000313804AD35C03F01F03D8407E4B186012
:102150000020FEF7B7FF0346002840F061822368A5
:1021600013F0010F7AD0082D6FD00C2D6BD063685F
:10217000B3F5803F00F09180B3F5A02F00F093807D
:102180006F4B1A6822F480321A601A6822F4802297
:102190001A606368002B00F09380FEF7CBFF0746C0
:1021A000674B1B6813F4003F58D1FEF7C3FFC01BF9
:1021B0006428F5D9032333E2614BD3F894301B092B
:1021C00003F0F0039EE75E4B1A6842F008021A60C3
:1021D0001A6822F0F002216A0A431A605A6822F44F
:1021E0007F42E16942EA01225A60206AFFF794FEC9
:1021F0000028A0D0012313E2514B1A6842F00802D4
:102200001A601A6822F0F002216A0A431A605A68BA
:1022100022F47F42E16942EA01225A609FE7484A7C
:10222000136823F001031360FEF784FF0746444B55
:102230001B6813F0020F92D0FEF77CFFC01B022830
:10224000F5D90323ECE1032E91D13D4B1B6813F428
:10225000003F03D06368002B00F0DD81236813F09A
:10226000020F4FD0042D3CD00C2D38D0E368002B4A
:1022700075D0334A136843F480731360FEF75AFF36
:1022800006462F4B1B6813F4806F5FD1FEF752FF99
:10229000801B0228F5D90323C2E1294A136843F4BD
:1022A0008033136075E703F18043A3F53C331A686C
:1022B00042F480221A601A6842F480321A6068E799
:1022C000FEF738FF07461E4B1B6813F4003FC5D0CE
:1022D000FEF730FFC01B6428F5D90323A0E1022ECE
:1022E000C4D1174B1B6813F4806F03D0E368002B35
:1022F00000F09381124A536823F0FE43216943EAB8
:1023000001635360236813F0080F53D06369002BF7
:1023100039D00B4AD2F8943043F00103C2F894301C
:10232000FEF708FF0646064BD3F8943013F0020F71
:1023300040D1FEF7FFFE801B0228F4D903236FE192
:102340000010024080D0000854000020B74A5368B3
:1023500023F0FE43216943EA01635360D2E7B34AA5
:10236000136823F480731360FEF7E4FE0646AF4B58
:102370001B6813F4806FC5D0FEF7DCFE801B0228BB
:10238000F5D903234CE1A94AD2F8943023F0010394
:10239000C2F89430FEF7CEFE0646A44BD3F8943034
:1023A00013F0020F06D0FEF7C5FE801B0228F4D9F9
:1023B000032335E1236813F0040F7AD09B4B9B6D08
:1023C00013F0805F0BD1994B9A6D42F080529A6561
:1023D0009B6D03F080530193019B012600E00026D2
:1023E000934B1B6813F4807F26D0A368012B37D052
:1023F000052B3DD08D4BD3F8902022F00102C3F87D
:102400009020D3F8902022F00402C3F89020A36813
:10241000002B3BD0FEF78EFE0746844BD3F890305E
:1024200013F0020F44D1FEF785FEC01B41F2883342
:102430009842F2D90323F3E07D4A136843F4807392
:102440001360FEF777FE0746794B1B6813F4807F15
:10245000CBD1FEF76FFEC01B0228F5D90323DFE0C6
:10246000724AD2F8903043F00103C2F89030CEE7C0
:102470006E4BD3F8902042F00402C3F89020D3F8BA
:10248000902042F00102C3F89020C0E7FEF752FE10
:102490000746664BD3F8903013F0020F08D0FEF7D2
:1024A00049FEC01B41F288339842F2D90323B7E0BA
:1024B000E6B9236813F0200F35D0636AE3B15B4AB5
:1024C000D2F8983043F00103C2F89830FEF732FE9C
:1024D0000646564BD3F8983013F0020F23D1FEF77F
:1024E00029FE801B0228F4D9032399E04F4A936DFB
:1024F00023F080539365DCE74C4AD2F8983023F000
:102500000103C2F89830FEF715FE0646474BD3F894
:10251000983013F0020F06D0FEF70CFE801B022845
:10252000F4D903237CE0A36A002B78D00C2D7AD059
:10253000022B23D03D4B1A6822F080721A601B6870
:1025400013F0006F04D1394AD36823F00303D3603A
:10255000364AD36823F0887323F48033D360FEF7C0
:10256000E9FD0446314B1B6813F0007F4AD0FEF7AB
:10257000E1FD001B0228F5D9032351E02B4A136823
:1025800023F080731360FEF7D5FD0546274B1B68CB
:1025900013F0007F06D0FEF7CDFD401B0228F5D9D1
:1025A00003233DE0236B5A1E636B1B0243EA0213B5
:1025B000E26A1343E26B5208013A43EA4253226C47
:1025C0005208013A43EA4263A26B43EAC263174AE4
:1025D000D360136843F080731360D36843F0807353
:1025E000D360FEF7A7FD0446104B1B6813F0007F75
:1025F00006D1FEF79FFD001B0228F5D903230FE04B
:1026000000230DE000230BE001231846704701234F
:1026100006E0012304E0012302E0012300E000239F
:10262000184603B0F0BD0123FAE700BF00100240D6
:1026300000700040002800F09A8070B504464E4BB0
:102640001B6803F007038B420CD24B4A136823F03C
:1026500007030B431360136803F007038B4201D099
:10266000012070BD0D46236813F0010F39D0636857
:10267000032B09D0022B26D063BB404A126812F00C
:10268000020F06D10120ECE73C4A126812F0007FED
:102690006FD03A498A6822F0030213438B60FEF739
:1026A00049FD0646354B9B6803F00C036268B3EBAB
:1026B000820F16D0FEF73EFD801B41F28833984210
:1026C000F0D90320CDE72D4A126812F4003FE0D183
:1026D0000120C6E7294A126812F4806FD9D101207F
:1026E000BFE7236813F0020F06D0244A936823F053
:1026F000F003A1680B4393601F4B1B6803F00703B3
:10270000AB420CD91C4A136823F007032B43136018
:10271000136803F00703AB4201D00120A1E723684F
:1027200013F0040F06D0154A936823F4E063E168C0
:102730000B439360236813F0080F07D00F4A936888
:1027400023F46053216943EAC1039360FFF72CFC33
:102750000A4B9B68C3F30313094AD35C03F01F03BE
:10276000D840084B18600020FEF7ACFC79E7012048
:102770007047012075E700BF0020024000100240B2
:1027800080D0000854000020014B1868704700BF3B
:102790005400002008B5FFF7F7FF054B9B68C3F313
:1027A0000223044AD35C03F01F03D84008BD00BFD6
:1027B0000010024090D0000808B5FFF7E5FF054B78
:1027C0009B68C3F3C223044AD35C03F01F03D840C1
:1027D00008BD00BF0010024090D00008F8B5594B6A
:1027E000DB6813F0030F18D0564BDB6803F00303CC
:1027F0000268934202D001252846F8BD002A00F065
:102800009F80504BDB68C3F302130133426893424D
:1028100001D00125F0E700251AE00368022B58D00B
:10282000032B5DD0012B01D001250FE0454A126832
:1028300012F0020F60D0434DEA6822F07302446840
:10284000013C43EA04131343EB600025002DD3D170
:102850000F4604463B4A136823F080631360FEF77B
:1028600069FC0646374B1B6813F0006F05D0FEF776
:1028700061FC801B0228F5D90325002DBCD1002F57
:102880003CD130490B6923F0784323F4FE43A06820
:10289000E268D20642EA002213430B61294A136818
:1028A00043F080631360FEF745FC0646254B1B682A
:1028B00013F0006F05D1FEF73DFC801B0228F5D90F
:1028C0000325002D98D11F4A1369A1690B43136199
:1028D00092E71C4A126812F4806FACD10125B5E76B
:1028E000184A126812F4003FA5D1164A126812F471
:1028F000802FA0D10125A9E70125A7E7012F0FD03F
:102900001048026922F0C06222F4FE42A1686369A5
:102910005B08013B5B0643EA012313430361BDE708
:102920000848026922F4C00222F4FE42A168236929
:102930005B08013B5B0543EA012313430361ADE7F9
:10294000012559E7001002402DE9F04182B004460C
:10295000036813F4006F26D0C36CB3F5000F06D0E4
:10296000B3F5400F1DD09BB1012637461DE0BE4A8E
:10297000D36843F48033D3600027BB4AD2F8883051
:1029800023F44003E16C0B43C2F8883000260CE0CE
:1029900000210430FFF722FF07460028EDD006464D
:1029A00003E00027E9E700263746236813F4003FD9
:1029B0006BD0AD4B9B6D13F0805F4CD1AA4B9A6DE1
:1029C00042F080529A659B6D03F080530193019B06
:1029D0004FF00108A54A136843F480731360FEF7B3
:1029E000A9FB0546A14B1B6813F4807F05D1FEF7B8
:1029F000A1FB401B0228F5D90327002F40D19A4B99
:102A0000D3F8903013F4407315D0626E9A4212D00E
:102A1000954AD2F8903023F44073D2F8901041F4E4
:102A20008031C2F89010D2F8901021F48031C2F8B1
:102A30009010C2F8903013F0010F0FD1002F40F02A
:102A40001181894AD2F8903023F44073616E0B43B0
:102A5000C2F8903015E04FF00008BBE7FEF76AFBC4
:102A60000546814BD3F8903013F0020FE6D1FEF704
:102A700061FB401B41F288339842F2D90327DDE71E
:102A80003E46B8F1000F40F0F380236813F0010FC9
:102A900008D0754AD2F8883023F00303216A0B432B
:102AA000C2F88830236813F0020F08D06E4AD2F8BB
:102AB000883023F00C03616A0B43C2F88830236826
:102AC00013F0040F08D0684AD2F8883023F030039E
:102AD000A16A0B43C2F88830236813F0080F08D0AE
:102AE000614AD2F8883023F0C003E16A0B43C2F890
:102AF0008830236813F0200F08D05B4AD2F8883062
:102B000023F44063216B0B43C2F88830236813F42D
:102B1000007F08D0544AD2F8883023F44023616CF7
:102B20000B43C2F88830236813F4806F08D04E4AF4
:102B3000D2F8883023F44013A16C0B43C2F88830DC
:102B4000236813F0400F08D0474AD2F8883023F4A6
:102B50004053616B0B43C2F88830236813F0800F39
:102B600008D0414AD2F8883023F44043A16B0B438C
:102B7000C2F88830236813F4807F08D03A4AD2F82C
:102B8000883023F44033E16B0B43C2F8883023686C
:102B900013F4801F08D0344AD2F89C3023F003038A
:102BA000216C0B43C2F89C30236813F4005F0FD0F4
:102BB0002D4AD2F8883023F04063216D0B43C2F8D0
:102BC0008830236DB3F1006F58D0B3F1806F5AD0C5
:102BD000236813F4002F0FD0234AD2F8883023F053
:102BE0004063616D0B43C2F88830636DB3F1006FD1
:102BF00051D0B3F1806F53D0236813F4802F0FD0DE
:102C0000194AD2F8883023F04063A16D0B43C2F813
:102C10008830A36DB3F1006F4AD0B3F1806F4CD010
:102C2000236813F4804F0CD00F4AD2F8883023F079
:102C30004053E16D0B43C2F88830E36DB3F1805F20
:102C400043D0236813F4803F08D0074AD2F8883075
:102C500023F00043216E0B43C2F88830304602B0A7
:102C6000BDE8F0813E460CE70010024000700040D5
:102C70001A4A936D23F08053936506E7D36843F4B3
:102C80008013D360A4E70121201DFFF7A7FD0028D2
:102C90009ED006469CE7D36843F48013D360ABE72D
:102CA0000121201DFFF79AFD0028A5D00646A3E7C5
:102CB000D36843F48013D360B2E70121201DFFF7EE
:102CC0008DFD0028ACD00646AAE70221201DFFF7A3
:102CD00085FD0028B5D00646B3E700BF00100240CE
:102CE000024A136843F00403136070470010024067
:102CF00038B504460268D36823F0A003D360FEF71A
:102D000019FA05462368DB6813F0200F07D1FEF798
:102D100011FA401BB0F57A7FF4D9032000E00020BF
:102D200038BD38B50368DA6812F0400F01D00020D2
:102D300038BD04464FF0FF32DA60FEF7FBF9054676
:102D40002368DB6813F0400F07D1FEF7F3F9401B4F
:102D5000B0F57A7FF4D90320EAE70020E8E738B538
:102D6000002864D0044690F82130002B44D0022380
:102D700084F821302368CA225A62236853225A6297
:102D80002046FFF7CEFF054600283AD12268936817
:102D900023F4E00323F04003936021688A686368AA
:102DA00020690343A069034313438B602368E268EF
:102DB0001A6122681369A16843EA0143136122681A
:102DC000D36823F08003D36023689B6813F0200F3F
:102DD00020D02268D36C23F00303D3642168CB6C2A
:102DE000E269606902431343CB642368FF225A629D
:102DF000012384F821300BE080F8203002F052F8F3
:102E0000B5E72368FF225A62042384F821300125A4
:102E1000284638BD2046FFF76BFF0028D9D023682D
:102E2000FF225A62042384F821300125F0E70125AE
:102E3000EEE7002302E001330A38C0B20928FAD8CD
:102E40001B01DBB21843704770B590F82030012B9E
:102E50006ED0012380F82030022380F821303AB967
:102E60004B7813F0100F03D003F0EF030A334B70CD
:102E70000E460446002A34D1C878FFF7DAFF05046D
:102E80007078FFF7D6FF45EA0025B078FFF7D1FF4D
:102E90002843357840EA45352368CA225A622368B8
:102EA00053225A622046FFF73CFF064620BB2368A8
:102EB00025F07F4525F0C0055D602268D36823F0CA
:102EC0008003D36023689B6813F0200F20D0236811
:102ED000FF225A62012384F82130002384F8203035
:102EE00014E0CD784878000240EA05408D78284308
:102EF0000D7840EA4535CFE72368FF225A62042364
:102F000084F82130002384F820300126304670BD3B
:102F10002046FFF7EDFE0028D9D02368FF225A6231
:102F2000042384F82130002384F820300126EDE7C3
:102F30000226EBE7F8B590F82030012B7FD015463C
:102F40000E460446012380F82030022380F8213009
:102F50000368CA225A62036853225A62FFF7E1FEED
:102F6000074600283ED1002D47D123689B6813F007
:102F7000400F01D10023F3703078FFF75AFF0504AA
:102F80007078FFF756FF45EA0025B078FFF751FF4C
:102F90002843F37840EA8350236800F07F3020F024
:102FA000FE4018602268936823F4802393602168B0
:102FB0008B68F2683069024313438B602268D368E0
:102FC00023F08003D36023689B6813F0200F26D082
:102FD0002368FF225A62012384F82130002384F8F9
:102FE00020302DE02368FF225A62042384F8213028
:102FF000002384F82030012722E023689B6813F027
:10300000400F01D10023F37033787078000240EA5A
:103010000340B3781843F37840EA8350BCE7204676
:10302000FFF766FE0028D3D02368FF225A620423EC
:1030300084F82130002384F82030012700E00227A3
:103040003846F8BD030903EB83035A0000F00F0074
:103050001044C0B2704770B503689B6A4B60036848
:103060001B69C3F30E038B6003681B6803F07F3397
:1030700023F0FE43C3F305400870C3F306264E70E9
:1030800003F07F058D709B0DCB705AB90C46FFF78E
:10309000D9FF20703046FFF7D5FF60702846FFF754
:1030A000D1FFA070002070BD70B503685B6823F08D
:1030B0007F4323F0C003180CC870C3F304264E707E
:1030C00003F03F058D70C3F342330B705AB90C46C1
:1030D000FFF7B8FFE0703046FFF7B4FF6070284696
:1030E000FFF7B0FFA070002070BD82B003685033BE
:1030F0000193019B03EB81010191019B1A6002B0D6
:1031000070470368503353F82100704730B4036AA6
:1031100023F001030362036A4468826922F4803267
:1031200022F073020D682A4323F002038D682B43BB
:10313000144DA84207D005F5A055A84203D005F5C7
:103140008065A84205D123F00803CD682B4323F006
:1031500004030C4DA84207D005F5A055A84203D0A2
:1031600005F58065A84205D124F440754C692C43CF
:103170008D692C43446082614A684263036230BCBB
:10318000704700BF002C014030B4036A23F4807301
:103190000362036A4268C46924F4803424F073042F
:1031A0000D682C4323F400738D6843EA0523124D08
:1031B000A84219D0104DA84207D005F5A055A84245
:1031C00003D005F58065A84207D122F440524D692D
:1031D00042EA05128D6942EA05124260C4614A68FA
:1031E000C263036230BC704723F40063CD6843EAD6
:1031F000052323F48063DDE7002C014030B4036A2B
:1032000023F480530362026A4468C36923F0807325
:1032100023F4E6430D6843EA052322F400528D6847
:1032200042EA05320B4DA84207D005F5A055A84249
:1032300003D005F58065A84204D124F480444D698B
:1032400044EA85144460C3614B680364026230BC85
:10325000704700BF002C014030B4036A23F4803370
:103260000362036A4468426D22F4803222F07002E5
:103270000D682A4323F400338D6843EA05430B4D60
:10328000A84207D005F5A055A84203D005F58065F2
:10329000A84204D124F480344D6944EA05244460F2
:1032A00042654A688265036230BC7047002C014069
:1032B00030B4036A23F480130362026A4468436DE6
:1032C00023F0807323F4E0430D6843EA052322F4DE
:1032D00000128D6842EA05520B4DA84207D005F551
:1032E000A055A84203D005F58065A84204D124F476
:1032F00080244D6944EA8524446043654B68C36576
:10330000026230BC704700BF002C014010B4036A59
:10331000046A24F001040462846924F0F00444EA9D
:10332000021223F00A030B43826103625DF8044B2F
:10333000704710B4036A23F0100303628469036AC0
:1033400024F4704444EA023223F0A00343EA011358
:10335000826103625DF8044B7047836823F0700359
:10336000194341F00701816070470000022380F893
:103370003D3002689168094B0B40062B09D09168DB
:10338000064B0B40B3F5803F03D0136843F00103B5
:103390001360012380F83D300020704707000100D2
:1033A0000268D36843F00103D36002689168084B58
:1033B0000B40062B09D09168054B0B40B3F5803FBD
:1033C00003D0136843F0010313600020704700BF6F
:1033D000070001007047704770477047704710B58D
:1033E000044603681A6912F0020F11D0DA6812F06D
:1033F000020F0DD06FF002021A61012303770368F8
:103400009B6913F0030F79D0FFF7E6FF00232377C2
:1034100023681A6912F0040F12D0DA6812F0040F50
:103420000ED06FF004021A610223237723689B6990
:1034300013F4407F68D02046FFF7CEFF00232377A8
:1034400023681A6912F0080F12D0DA6812F0080F18
:103450000ED06FF008021A61042323772368DB691A
:1034600013F0030F57D02046FFF7B6FF0023237752
:1034700023681A6912F0100F12D0DA6812F0100FD8
:103480000ED06FF010021A61082323772368DB69DE
:1034900013F4407F46D02046FFF79EFF002323779A
:1034A00023681A6912F0010F03D0DA6812F0010FD5
:1034B0003FD123681A6912F0800F03D0DA6812F046
:1034C000800F3DD123681A6912F4807F03D0DA6837
:1034D00012F0800F3BD123681A6912F0400F03D01D
:1034E000DA6812F0400F39D123681A6912F0200F00
:1034F00003D0DA6812F0200F37D110BD02F0E6FADF
:103500002046FFF76AFF81E7204602F0DFFA2046F7
:10351000FFF763FF92E7204602F0D8FA2046FFF754
:103520005CFFA3E7204602F0D1FA2046FFF755FFE3
:10353000B4E76FF001021A612046FFF74CFFB8E7CD
:103540006FF080021A61204600F0B1FABAE76FF41A
:1035500080721A61204600F0ABFABCE76FF04002BF
:103560001A612046FFF73AFFBEE76FF020021A61AA
:10357000204600F09BFAC0E703681E4A904206D03E
:10358000B0F1804F03D0A2F59432904203D123F0E2
:1035900070034A681343174A90420ED0B0F1804F2F
:1035A0000BD0A2F59432904207D002F59E329042A1
:1035B00003D002F58062904203D123F44073CA68BD
:1035C000134323F080034A69134303608B68C3628B
:1035D0000B688362074B984207D003F5A0539842CB
:1035E00003D003F58063984201D10B690363012383
:1035F00043617047002C0140A8B110B5044690F813
:103600003D305BB1022384F83D30211D2068FFF777
:10361000B3FF012384F83D30002010BD80F83C301A
:1036200003F0ACFCEEE701207047A8B110B50446EA
:1036300090F83D305BB1022384F83D30211D2068B5
:10364000FFF79AFF012384F83D30002010BD80F879
:103650003C30FFF7BFFEEEE70120704730B4036A4D
:1036600023F010030362036A4468826922F08072C7
:1036700022F4E6420D6842EA052223F020038D6819
:1036800043EA0513124DA84219D0114DA84207D0A4
:1036900005F5A055A84203D005F58065A84207D1DD
:1036A00024F440644D6944EA85048D6944EA850444
:1036B000446082614A688263036230BC704723F0D1
:1036C0008003CD6843EA051323F04003DDE700BF24
:1036D000002C014090F83C30012B34D010B504464A
:1036E000012380F83C30022380F83D30142A0FD8A3
:1036F000DFE802F00B0E0E0E150E0E0E190E0E0E5A
:103700001D0E0E0E210E0E0E25000068FFF7FEFCAA
:10371000012384F83D30002084F83C0010BD00688F
:10372000FFF79CFFF4E70068FFF72EFDF0E7006865
:10373000FFF764FDECE70068FFF78EFDE8E700683F
:10374000FFF7B6FDE4E70220704710B4846824F464
:103750007F4442EA03230B43234383605DF8044B19
:103760007047000090F83C30012B73D010B5044630
:10377000012380F83C30022380F83D3002689068D5
:10378000354B034093600B68402B59D010D9702BF8
:103790003CD01BD8502B49D0602B30D1CA68496827
:1037A0002068FFF7C6FD60212068FFF7D6FD26E000
:1037B000102B06D004D9202B03D0302B01D01EE0D3
:1037C000EBB919462068FFF7C8FD18E0B3F5805F34
:1037D0000ED0B3F5005F12D1CB684A6889682068C3
:1037E000FFF7B3FF2268936843F48043936006E0D9
:1037F0002268936823F4803323F007039360012346
:1038000084F83D30002084F83C0010BDCB684A6845
:1038100089682068FFF799FF2268936823F4803352
:1038200023F0770343F077039360E8E7CA684968B9
:103830002068FFF76BFD50212068FFF78EFDDEE763
:10384000CA6849682068FFF761FD40212068FFF7DA
:1038500084FDD4E7022070478800FEFF10B401F019
:103860001F01012303FA01F4036A23EA040303623C
:10387000036A8A40134303625DF8044B70470000FB
:1038800010B504460C290DD8DFE801F0070C0C0C2C
:10389000320C0C0C380C0C0C3E000268D36843F060
:1038A0000203D36001222068FFF7D8FF2368194A7A
:1038B000934207D002F5A052934203D002F58062F2
:1038C000934203D15A6C42F400425A6422689168D0
:1038D000114B0B40062B09D091680F4B0B40B3F5F1
:1038E000803F03D0136843F001031360002010BD34
:1038F0000268D36843F00403D360D3E70268D36857
:1039000043F00803D360CDE70268D36843F01003A7
:10391000D360C7E7002C01400700010010B5044642
:103920000C290DD8DFE801F0070C0C0C2D0C0C0C49
:10393000330C0C0C39000268D36823F00203D36007
:1039400000222068FFF78AFF23681E4A93422AD08C
:1039500002F5A052934226D002F58062934222D013
:103960002368196A41F21112114208D1196A40F212
:103970004442114203D11A6822F001021A60002069
:1039800010BD0268D36823F00403D360D8E702684F
:10399000D36823F00803D360D2E70268D36823F02A
:1039A0001003D360CCE7196A41F211121142D7D14A
:1039B000196A40F244421142D2D15A6C22F40042B8
:1039C0005A64CDE7002C014090F83C30012B25D003
:1039D00030B4012380F83C30022380F83D30026887
:1039E000536895680E4CA24213D023F070030C6804
:1039F000234325F08004896821435360036899605C
:103A0000012380F83D30002380F83C30184630BC5C
:103A1000704723F470034C682343E6E702207047A5
:103A2000002C014090F83C30012B3BD010B4012316
:103A300080F83C30CB6823F440738A68134323F446
:103A400080634A68134323F400630A68134323F432
:103A500080530A69134323F400534A69134323F440
:103A600080438A6A134323F470238A6943EA02433A
:103A700002680D4CA24207D05364002380F83C300A
:103A800018465DF8044B704723F470034C6A43EA10
:103A9000045323F08073CC69234323F00073096A35
:103AA0000B43E9E702207047002C01407047704744
:103AB00070470268136823F4907313600268936878
:103AC00023F001039360202380F872300023036603
:103AD000704708B501680A6822F040020A60202297
:103AE00080F871200022426603F090FC08BD704708
:103AF00038B504460268D3691168906813F00F0561
:103B00000CD113F0200F09D011F0200F06D0236E36
:103B1000002B00F09380204698478FE0002D6FD057
:103B200010F0010502D111F4907F69D013F0010F5C
:103B300007D011F4807F04D001201062626F02432D
:103B4000626713F0020F07D035B1226802201062BD
:103B5000626F42F00402626713F0040F07D035B1C0
:103B6000226804201062626F42F00202626713F062
:103B7000080F09D011F0200F00D12DB122680820C4
:103B80001062626F02436267626F002A56D013F0C0
:103B9000200F06D011F0200F03D0236E0BB120466A
:103BA0009847636F13F0080F04D123689B6813F0E4
:103BB000400F1FD02046FFF77CFF23689A6812F061
:103BC000400F13D09A6822F040029A60E36E4BB126
:103BD0001D4A9A63E06EFDF7E7FF78B3E06E836BF2
:103BE00098472BE02046FFF782FF27E02046FFF7AB
:103BF0007EFF23E02046FFF77AFF002363671DE086
:103C000013F4801F02D010F4800F0AD113F0800F3C
:103C10000ED011F0800F0BD0636E7BB12046984719
:103C20000CE04FF480131362204600F00CFB05E01B
:103C300013F0400F02D011F0400F00D138BD2046E4
:103C4000FFF747FFFAE700BF4D3C000808B5806A60
:103C50000023A0F85A30A0F85230FFF748FF08BD03
:103C60002DE9F048044601688368026913434269FC
:103C70001343C269134308689F4A024013430B6011
:103C80002268536823F44053E1680B435360A169F1
:103C900022689A4B9A4201D0236A1943936823F40D
:103CA00030630B4393602368954A934223D0954A2F
:103CB000934234D0944A93424AD0944A93425DD07E
:103CC0008E4A934270D010258C4A934200F08F8028
:103CD000E369B3F5004F00F00581082D00F2A281E1
:103CE000DFE815F0620178018201A0018D01A001D9
:103CF000A001A001970102F55842D2F8882002F0F5
:103D00000302032A09D8DFE802F00204680601254D
:103D1000DAE70425D8E70825D6E71025D4E702F529
:103D2000E632D2F8882002F00C020C2A0ED8DFE826
:103D300002F0070D0D0D090D0D0D560D0D0D0B00AB
:103D40000025C1E70425BFE70825BDE71025BBE72F
:103D500002F5E432D2F8882002F03002102A09D0AD
:103D600005D9202A3DD0302A06D10825ACE71AB95A
:103D70000025A9E70425A7E71025A5E702F5E2320B
:103D8000D2F8882002F0C002402A09D005D9802A42
:103D900029D0C02A06D1082596E71AB9002593E74D
:103DA000042591E710258FE702F5C832D2F8882064
:103DB00002F44062B2F5806F0BD007D9B2F5006F04
:103DC00013D0B2F5406F06D108257DE71AB900255A
:103DD0007AE7042578E7102576E7022574E70225BF
:103DE00072E7022570E702256EE702256CE7082DD1
:103DF00000F21B81DFE815F00C0019011400190115
:103E0000110019011901190109004FF4004008E0DF
:103E1000FEF7C0FC28B90020D7E0FEF7C5F8F9E7A7
:103E20003B48626802EB4203834200F20081B0EB40
:103E3000023F00F2FE80082D51D8DFE805F0055062
:103E40002050305050504300FEF7A4FC0025070ED0
:103E50000602626850082B4616EB000B47F1000C77
:103E600058466146FCF7A0FE03462846A3F540717C
:103E7000284A914200F2DF802268D360A5E056080C
:103E800000252B46DFF890B04FF0000C1BEB06002E
:103E90004CF10001FCF788FE03462846E6E7FEF7F2
:103EA00083F80025070E0602626850082B4616EBC1
:103EB000000B47F1000C58466146FCF775FE0346BF
:103EC0002846D3E75008002700252B4610F50000B0
:103ED00047F10001FCF768FE03462846C6E70120CB
:103EE0000023C3E7082D5CD8DFE805F018313C5B00
:103EF000475B5B5B520000BFF369FFEF008000404F
:103F0000003801400044004000480040004C0040A0
:103F10000024F400FFFC0F00000024F4FEF73AFC3C
:103F20006268530803EB4003B3FBF2F39BB200203B
:103F3000A3F110014FF6EF7291427ED89AB222F0AF
:103F40000F02C3F3420313432268D3603DE0FEF740
:103F500033FC6268530803EB4003B3FBF2F39BB2FC
:103F60000020E5E76268530803F1F47303F590431A
:103F7000B3FBF2F39BB20020DAE7FEF715F86268B4
:103F8000530803EB4003B3FBF2F39BB20020CFE7EF
:103F90006268530803F58033B3FBF2F39BB2002051
:103FA000C6E701200023C3E7FEF7F4FB636800EBDC
:103FB0005302B2FBF3F292B20020A2F110014FF6CD
:103FC000EF7399423BD82368DA600022226662666A
:103FD000BDE8F088FEF7F0FB636800EB5302B2FB2C
:103FE000F3F292B20020E8E763685A0802F574021F
:103FF00002F51052B2FBF3F292B20020DDE7FDF7BA
:10400000D3FF636800EB5302B2FBF3F292B20020DD
:10401000D3E763685A0802F50042B2FBF3F292B2AA
:104020000020CAE701200022C7E70120CDE70120D8
:10403000CBE70120C9E70120C7E70120C5E7012040
:10404000C3E700BF436A13F0010F06D0026853684C
:1040500023F40033816A0B435360436A13F0020F69
:1040600006D00268536823F48033C16A0B4353605F
:10407000436A13F0040F06D00268536823F48023C8
:10408000016B0B435360436A13F0080F06D00268BC
:10409000536823F40043416B0B435360436A13F0AE
:1040A000100F06D00268936823F48053816B0B4392
:1040B0009360436A13F0200F06D00268936823F4DC
:1040C0000053C16B0B439360436A13F0400F0AD057
:1040D0000268536823F48013016C0B435360036C34
:1040E000B3F5801F0BD0436A13F0800F06D002682F
:1040F000536823F40023816C0B43536070470268BC
:10410000536823F4C003416C0B435360EBE72DE984
:10411000F04105460F4616469846069C2B68DB691B
:1041200037EA03030CBF01230023B3421DD1B4F1CE
:10413000FF3FF3D02CB1FCF7FDFFA0EB0800A0423D
:10414000ECD92A68136823F4D07313602A68936843
:1041500023F001039360202385F8713085F87230D5
:10416000002385F87030032000E00020BDE8F081D6
:1041700030B583B0044600234367FCF7DBFF0546F8
:1041800023681B6813F0080F0ED123681B6813F017
:10419000040F17D1202384F8713084F87230002086
:1041A00084F8700003B030BD6FF07E430093034687
:1041B00000224FF400112046FFF7A9FF0028E4D0A9
:1041C0000320EFE76FF07E4300932B4600224FF46D
:1041D00080012046FFF79BFF0028DBD00320E1E7AA
:1041E00078B310B5044690F871300BB3242384F8EB
:1041F00071302268136823F0010313602046FFF733
:104200002FFD012813D0636ABBB92268536823F4D9
:10421000904353602268936823F02A0393602268D6
:10422000136843F0010313602046FFF7A1FF10BDA0
:1042300080F8703003F058F9D8E72046FFF702FF06
:10424000E3E7012070477047034B1B68586A5B6ABD
:104250009842F9D1704700BF4809002008B5FCF723
:1042600069FF08BD10B5064B03EBC0040A1C18BF5C
:104270000122A18853F83000FDF7F1FD10BD00BF09
:104280000000002008B5064B03EBC002918853F8EC
:104290003000FDF7DDFD003018BF012008BD00BF74
:1042A0000000002000B587B0002300930193029323
:1042B0000393049305931948194A0260436010223E
:1042C0008260C36003610822426103764376012263
:1042D000C26180F820308362C36280F8303043636B
:1042E00080F83830FCF72CFF90B90E4B0093062372
:1042F0000193002302937F220392042204920593E8
:1043000069460648FDF72EF928B907B05DF804FBA9
:1043100000F00AF9E9E700F007F9F6E74C0500209C
:1043200000000450000052C702681A4B9A4200D0A5
:10433000704710B582B0044603F17043A3F5F8331B
:10434000DA6C42F40052DA64DB6C03F4005301933C
:10435000019B1148114B0360002343608360C360DD
:1043600080220261436183612022C2610362FDF702
:104370009FFB60B9084B23659C6200221146122006
:10438000FDF740FB1220FDF771FB02B010BD00F0FD
:10439000CBF8EFE700000450B4050020080002400D
:1043A00000B583B00A4B9A6C42F001029A649B6C90
:1043B00003F001030193019B002211460B20FDF73E
:1043C00021FB0B20FDF752FB03B05DF804FB00BF9F
:1043D00000100240F0B58BB00024059406940794B9
:1043E000089409944B4BDA6C42F00402DA64DA6CFC
:1043F00002F004020092009ADA6C42F08002DA6461
:10440000DA6C02F080020192019ADA6C42F0010249
:10441000DA64DA6C02F001020292029ADA6C42F07B
:104420000202DA64DA6C02F002020392039ADA6C96
:1044300042F00802DA64DB6C03F008030493049B87
:1044400022464FF448714FF09040FDF708FD324F7F
:1044500022464FF486613846FDF701FD2F4E224675
:1044600080213046FDF7FBFC4FF4005305932C4BA5
:104470000693079405A93046FDF720FC0323059316
:1044800006940125079505A93046FDF717FC102372
:1044900005930694079505A94FF09040FDF70EFC93
:1044A0004FF44873059306950794089405A94FF0B7
:1044B0009040FDF703FC40F2011305930694079525
:1044C00005A93846FDF7FAFB4FF486630593069578
:1044D0000794089405A93846FDF7F0FB802305935F
:1044E00006950794089405A93046FDF7E7FB4FF4BD
:1044F000805305930694079405A93046FDF7DEFB2B
:10450000042305930694079405A90648FDF7D6FBF6
:104510000BB0F0BD00100240000400480008004845
:1045200000002110000C0048FEE7000010B5B0B0FC
:10453000442200211FA803F069FA00241A941B9456
:104540001C941D941E9468222146684603F05EFA6E
:10455000FDF78AFC2A4AD2F8903023F01803C2F8FB
:10456000903016231F93012321934FF480722292DF
:104570004022239225932694B023279329941FA8A1
:10458000FDF77EFD002833D10F231A9300231B93E0
:104590001C934FF4E0631D931E9302211AA8FEF7AB
:1045A00049F838BB174B0093002309930A930B93E8
:1045B0004FF0805317934FF48073199302220192A6
:1045C0000123029308230393072104910592069384
:1045D0004FF0807307936846FEF7B6F960B94FF461
:1045E0000070FDF751FC48B9FEF77AFB30B010BD02
:1045F000FFF79AFFFFF798FFFFF796FFFFF794FF8B
:10460000001002400E40020008B5FCF775FDFFF7F0
:104610008DFFFFF7DFFEFFF7C3FE02F01DFF02F084
:10462000F7FE02F0DBFB00F0F5FB02F02BFC02F0E2
:1046300037FFFFF737FE0548FEF798FE00F09CFBBA
:1046400001F018FB01F032FEFEE700BF4809002030
:10465000F8B505460F46002633461FE0281903F03B
:1046600096F9354A82FB0032C117C1EB22323A6318
:1046700042F2107303FB1203304A82FB03ECDB1798
:10468000C3EB6C13FB6282FB0023C1EB6313642258
:1046900002FB1303BB620136F6B22346082E49D84B
:1046A0005C1CA4B2EA5C23462C2AF9D1082EF2D86D
:1046B00001A353F826F000BF5D460008DD46000860
:1046C000E9460008F94600080547000815470008B4
:1046D0001F4700089746000829470008281903F0DB
:1046E00053F987ED000BD6E72B5D4E2B02D0532BF1
:1046F00000D000233B72CEE7281903F045F987ED7F
:10470000040BC8E72B5D452B02D0572B00D00023AC
:104710003B76C0E7281903F03AF97876BBE7281909
:1047200003F035F9B876B6E7281903F02DF987EDCF
:10473000080BB0E7F8BD00BFAD8BDB681F85EB5100
:10474000F8B505460F46002633461FE0281903F04A
:104750001EF9474A82FB0032C117C1EB2232FA63CD
:1047600042F2107303FB1203424A82FB03ECDB1795
:10477000C3EB6C13BB6382FB0023C1EB63136422A6
:1047800002FB13037B630136F6B223460A2E6ED872
:104790005C1CA4B2EA5C23462C2AF9D1082EF2D87C
:1047A00001A353F826F000BF4D470008CD4700088D
:1047B000DF470008EB470008FB47000807480008F0
:1047C00017480008234800082F4800082B5D412B9C
:1047D00002D0562B00D0002387F83030D3E72819B9
:1047E00003F0D2F887ED000BCDE72B5D4E2B02D006
:1047F000532B00D000233B72C5E7281903F0C4F8FF
:1048000087ED040BBFE72B5D452B02D0572B00D063
:1048100000233B76B7E7281903F0B6F887ED080BBD
:10482000B1E7281903F0B0F887ED0A0BABE72819B8
:1048300003F0ADF80E4981FB0031C217C2EB213104
:10484000396442F2107303FB11030A4981FB03EC44
:10485000DB17C3EB6C13013B7B6481FB0013C2EBE2
:104860006313642202FB13031344BB648BE7F8BD9C
:10487000AD8BDB681F85EB51F8B50C46037A4E2BE8
:1048800002D0532B23D0F8BDD0E900670022264B7D
:1048900030463946FBF78AFFFCF70EF905469FEDD7
:1048A000201B47EC106B02F0E1FE00221F4B51EC85
:1048B000100BFBF77BFF06460F462846FBF7E2FD91
:1048C00032463B46FBF792FCC4E90001DBE7D0E946
:1048D00000670022144B30463946FBF767FFFCF7B0
:1048E000EBF805469FED0E1B47EC106B02F0BEFE89
:1048F00000220E4B51EC100BFBF758FF06460F46FB
:104900002846FBF7BFFD32463B46FBF76FFC0246ED
:1049100001F10043C4E90023B5E700BFAFF3008015
:1049200000000000000059400000594000004E40C7
:10493000F8B50C46037E452B02D0572B23D0F8BD8B
:10494000D0E904670022264B30463946FBF72EFF9C
:10495000FCF7B2F805469FED201B47EC106B02F008
:1049600085FE00221F4B51EC100BFBF71FFF064684
:104970000F462846FBF786FD32463B46FBF736FCE2
:10498000C4E90001DBE7D0E904670022144B30469C
:104990003946FBF70BFFFCF78FF805469FED0E1B22
:1049A00047EC106B02F062FE00220E4B51EC100B34
:1049B000FBF7FCFE06460F462846FBF763FD324632
:1049C0003B46FBF713FC024601F10043C4E9002318
:1049D000B5E700BFAFF300800000000000005940C1
:1049E0000000594000004E4010B504462A2104F052
:1049F0005DFA10220021013005F044F9C0B2631CB9
:104A0000002201E05A400B46591C1B782A2BF9D191
:104A1000824201D1002010BD8020FCE738B5054658
:104A2000FFF7E2FF044628B90B49284604F04BFA89
:104A300010B10224204638BD0849284604F043FA44
:104A400008B10124F6E70649284604F03CFA00289C
:104A5000F0D00124EEE700BFA4D00008ACD00008DD
:104A6000B4D000080246A0F13003D8B2092812D908
:104A7000A2F16103DBB2052B08D9A2F14103DBB23D
:104A8000052B07D8A2F13700C0B27047A2F157003A
:104A9000C0B27047F020704708B5FFF7DFFB08BDD4
:104AA00010B5034C2146034802F045FC207810BDA8
:104AB000CC020020D409002008B5024802F038FCDE
:104AC000C0B208BDD4090020002380F8993080F8D6
:104AD000983090F89A3003F0FD0343F0010380F81A
:104AE0009A30704710B50446A022002102F08EFFD4
:104AF000094BC4F8A430094BC4F8A030084BC4F8E3
:104B0000A8306423C4F890304FF4FA63C4F89430AA
:104B10002046FFF7D9FF10BDB94A0008A14A000896
:104B2000994A000870B5044690F8993053B990F846
:104B3000983043BB0023A4F8823084F898300123D6
:104B400084F8993094F89A3013F0010F09D094F852
:104B5000993013F0030F33D194F89930042B00F0FF
:104B6000EF80D4F8A8309847D4F88830C01AD4F829
:104B70009430834240F2F780012384F89B3070BD6B
:104B8000D4F8A0309847D4F8A43098470028F7D13B
:104B9000D0E724280FD1A4F882302070002384F8B5
:104BA000863084F88530D4F8A8309847C4F8880057
:104BB000022384F8993094F89930012B00F2928006
:104BC000D4F8A4309847002800F0A080D4F8A03092
:104BD000984784F8800094F89930022B04D0032B76
:104BE00028D0012BE7D1D4E72A2815D094F88630B5
:104BF000584084F88600B4F882307E2B13D9002305
:104C0000A4F8823094F8983043F0100384F8983078
:104C1000042384F89930CEE7042384F884300323F6
:104C200084F89930E7E75A1CA4F8822094F8802091
:104C3000E254C0E794F8843093B1013B84F88430A7
:104C4000B4F882307E2B30D90023A4F8823094F857
:104C5000983043F0100384F89830042384F8993096
:104C600094F88430002BA6D1B4F882502B1FE05C5E
:104C7000FFF7F8FE0646033D605DFFF7F3FE16F012
:104C8000F00F19D110F0F00F16D140EA061094F889
:104C9000863098421AD094F8983043F0080384F88C
:104CA0009830042384F8993085E75A1CA4F88220B0
:104CB00094F88020E254D3E794F8983043F0080346
:104CC00084F89830042384F8993074E7002384F83A
:104CD000993094F89A3023F0010343F0020384F8EA
:104CE0009A3068E7D4F8A8309847D4F88830C01ACA
:104CF000D4F8903083423FF663AF94F8983043F095
:104D0000010384F89830042384F8993094F899309A
:104D1000012B7FF621AFD4F8A8309847D4F888301B
:104D2000C01AD4F8903083423FF616AF94F898300A
:104D300043F0020384F89830042384F899300BE799
:104D400094F89E30013384F89E3094F89D300133FE
:104D500084F89D3094F89C30013384F89C302046D0
:104D6000FFF7B2FEFDE6002384F89B3007E790F8DA
:104D70009A00C0F3400070470E4AD36843F0807336
:104D8000D3600D4B20225A604FF060430B4AC3F8AA
:104D9000B02F0B4AC3F8802ED3F8002E42F0010248
:104DA000C3F8002ED3F8402E42F00102C3F8402E83
:104DB000704700BFF0ED00E0002004E055CEACC528
:104DC00005000100501E1AB310B40CE000BF4FF0F4
:104DD00060431B68002BF9D04FF060431A70024605
:104DE0002146013882B14C1C0A784FF06043D3F859
:104DF000803E13F0010FF2D04FF06043D3F8003E35
:104E000013F0010FEBD0E2E700205DF8044B704790
:104E10000020704700B587B00023019302930393ED
:104E20000493059300931D481D4A026043607F224E
:104E30008260FF22C260036143618361C361FDF749
:104E40008EFF08BB00228DF804208DF805208DF818
:104E500006200492059201A91048FEF76BF8B0B93C
:104E600001238DF8003012238DF801300A228DF8CD
:104E700002208DF80330002269460848FDF7E4FF60
:104E800040B907B05DF804FBFFF74EFBDAE7FFF728
:104E90004BFBE5E7FFF748FBF3E700BFFC0500200D
:104EA000002800400268064B9A4200D07047054A2D
:104EB000D2F8903043F40043C2F89030F6E700BFD8
:104EC000002800400010024000B58BB00C23039373
:104ED0000023029301936422069205930123049315
:104EE00001A802F075FE034BC3E900010BB05DF8A9
:104EF00004FB00BF2006002038B5D0E90045204B58
:104F0000D3E90023A01A65EB0301FBF7F7FA18A316
:104F1000D3E90023FBF720FB17A3D3E90023FBF71A
:104F200065F904460D460022164B1749D1E90001E8
:104F3000FBF73CFC02460B4620462946FBF756F998
:104F400004460D46FBF748FE18220023FBF7DCFD64
:104F5000FBF7D4FA00220D4BFBF7FEFA02460B4694
:104F600020462946FBF740F9094BC3E9000138BD4B
:104F70000C6498EC1841323F26AC972387B232403C
:104F80002006002000002E402806002000003840A7
:104F90003806002008B50022044B0549D1E900017C
:104FA000FBF7DAFA41EC100B08BD00BF00002E4001
:104FB0003806002010B485B08DED000B8DED021B7E
:104FC000044C04AB13E90F0084E80F0005B05DF852
:104FD000044B70472806002030B591B055EC104BBB
:104FE0008DED061BFFF7D6FF22462B4651EC100B2A
:104FF000FBF7FAF804460D4607E000220F4B204667
:105000002946FBF7F3F804460D460022002320460C
:105010002946FBF713FD0028EFD1CDE90845DDE96E
:105020000623CDE90A2308AB0FCB10AC04E90F002F
:105030009DED0C0B9DED0E1B11B030BD0080764038
:1050400030B585B004460D4602F0A1FCADF8000075
:10505000B021204603F02AFFB8B1044601342046AF
:1050600002F095FC8DF802002721204603F01EFF78
:1050700070B1013002F088FC8DED020B04AB13E936
:105080000F0085E80F00002000E0012005B030BDD2
:105090000120FBE730B585B004AC04E90F009DF9B1
:1050A0000000FBF7EFF90022124BFBF755FA04461C
:1050B0000D469DF90100FBF7E5F900220E4BFBF7C9
:1050C0004BFA02460B4620462946FBF78FF804466A
:1050D0000D460022094BDDE90201FBF767FB0246A2
:1050E0000B4620462946FBF781F841EC100B05B032
:1050F00030BD00BF00002E400000D03F00006E40D9
:1051000070B52DED028B064655EC104B07E00022E2
:10511000234B20462946FBF769F804460D4600223A
:10512000002320462946FBF789FC0028EFD1002206
:105130001C4B20462946FBF739FBFBF7BDFC3070C2
:105140009FED158B0022184B20462946FBF704FAE9
:10515000B0EE481AF0EE681A41EC100B02F086FA35
:1051600051EC100BFBF7A8FC707000220F4B20468F
:105170002946FBF7F1F9B0EE481AF0EE681A41EC57
:10518000100B02F073FA86ED020B3046BDEC028B79
:1051900070BD00BFAFF300800000000000004E4073
:1051A0000080764000002E400000104000006E405D
:1051B00070B52DED028B06469FED211B02F056FACD
:1051C00055EC104B10EE100A2946FBF775FC3080A9
:1051D0000022002320462946FBF730FC48BB9FED08
:1051E0001A8B53EC182B20462946FBF7B5F9B0EE85
:1051F000481AF0EE681A41EC100B02F037FA51EC45
:10520000100BFBF759FCB07011A3D3E90023204623
:105210002946FBF7A1F9B0EE481AF0EE681A41EC06
:10522000100B02F023FA86ED020B3046BDEC028B28
:1052300070BD05F100431D46D1E700BFAFF300800C
:1052400000000000008076400000000000004E409A
:10525000000000000020AC4030B585B004AC04E98B
:105260000F00BDF90000002824DBFBF70BF9044612
:105270000D469DF90200FBF705F90022224BFBF7D2
:1052800095FA02460B4620462946FAF7AFFF044638
:105290000D461BA3D3E90023DDE90201FBF786FAE3
:1052A00002460B4620462946FAF7A0FF41EC100BB8
:1052B00005B030BDFBF7E6F804460D469DF9020047
:1052C000FBF7E0F80022104BFBF770FA02460B46A2
:1052D00020462946FAF788FF04460D4608A3D3E97D
:1052E0000023DDE90201FBF761FA02460B46204686
:1052F0002946FAF779FF41EC100BD9E7AFF30080AC
:10530000000000000020AC4000004E4010B588B006
:1053100008AC04E90F009DF910309DF91120074CED
:10532000DDE90601CDE902010092054A202120466F
:1053300003F068FD204608B010BD00BFD002002079
:10534000BCD0000810B588B008AC04E90F00BDF966
:1053500010309DF91220074CDDE90601CDE902016C
:105360000092054A2021204603F04CFD204608B05B
:1053700010BD00BFF0020020CCD0000810B58AB0EC
:1053800001280FD018B1022815D00F4808E00E4CA4
:105390008DED000B0D4A2021204603F033FD204601
:1053A0000AB010BD02AC2046FFF7AAFE94E80F0039
:1053B000FFF7ACFFF4E706AC2046FFF7F9FE94E8F0
:1053C0000F00FFF7BFFFEBE710030020DCD0000861
:1053D00008B500210420FEF745FF08BD08B50121EE
:1053E0000420FEF73FFF08BD08B500210820FEF7A6
:1053F00039FF08BD08B501210820FEF733FF08BDBD
:1054000038B50546017CB1FA81F149090320FEF760
:1054100029FF01210220FEF725FFFEF715FF0446B4
:105420002B7C012B0CD06B68013B6B60FEF70CFFF3
:10543000001B0128FAD900210220FEF713FF38BD16
:105440006B6801336B60F1E738B50546017CB1FA52
:1054500081F149090720FEF705FF01210620FEF72B
:1054600001FFFEF7F1FE04462B7C012B0CD06B688C
:10547000013B6B60FEF7E8FE001B0228FAD9002111
:105480000620FEF7EFFE38BD6B6801336B60F1E775
:1054900008B50520FEF7F6FEC0B208BD08B5092024
:1054A000FEF7F0FEC0B208BD2DE9F0412E4C2046BB
:1054B00000F0FCF82D4D284600F0F8F80026666054
:1054C000A6604FF4FA68C4F8148021A3D3E900233E
:1054D000C4E90C2343F25953E3600022244BC4E98E
:1054E0000E23244BE364244BA365244B2365244BF8
:1054F0006365244F27646664012384F84830FFF70E
:105500006DFF6E60AE6014A3D3E90023C5E90C23E0
:1055100041F64743EB60C5F8148011A3D3E900239B
:10552000C5E90E23184BEB64184BAB65184B2B6584
:10553000184B6B652F6404236B64022385F8483095
:10554000FFF758FF206CFDF72BFFBDE8F08100BF8F
:105550007E5CD8C7857D8C3F7D3F355EBA499C3FD8
:10556000333333333313594070060020D006002004
:10557000004057400154000891540008D1530008DE
:10558000DD53000808090020495400089D54000814
:10559000E9530008F553000838B555EC104B0022CC
:1055A000002310EE100A2946FBF75CFA40B10022F6
:1055B000044B20462946FBF741FA10B1012000E0D8
:1055C000002038BD0080664070B555EC104B064693
:1055D0000022002310EE100A2946FBF72FFAC8B963
:1055E0000022114B20462946FBF746FAA8B946B9D6
:1055F00000220D4B20462946FAF7F6FD41EC100B30
:105600000AE022462B4600200749FAF7EDFD41EC5F
:10561000100B01E09FED020B70BD9FED010BFBE74E
:105620000000000000000000008056400000000064
:1056300070B555EC104B06460022002310EE100A00
:105640002946FBF7FBF950B9A6B913A3D3E9002308
:1056500020462946FAF7C8FD41EC100B70BD002228
:105660000B4B20462946FBF707FA0028ECD09FEDAC
:10567000060BF3E70022074B20462946FAF7B4FD54
:1056800041EC100BEAE700BF000000000000000042
:1056900000807640008056400000000000E070402E
:1056A00008B5416C006CFEF739F908BD08B56022F9
:1056B000002102F0ABF908BD10B50446836D984790
:1056C000E0706368A2689342CCBF0022012262703E
:1056D000E2689342B4BF00230123A370226812F052
:1056E000FF2F01D0227C2AB133B1237C012B06D0BD
:1056F000002302E0012300E00023237010BD0123FA
:10570000FBE738B5D0E90C454068FAF7BBFE224606
:105710002B46FAF721FF41EC100B38BD10B50446BB
:10572000FFF7EFFFD4E90E2351EC100BFAF75CFD05
:1057300041EC100B10BD08B553EC102BD0E90E0155
:10574000FAF754FD41EC100B08BD38B504460D4680
:10575000416C006CFEF7E2F8636C73B1042B17D058
:10576000082B1CD00C2B21D0102B26D0236C1B68AF
:10577000596A294489B2D96505E0236C1B68596AC6
:10578000294489B25963616C206CFEF779F838BD01
:10579000236C1B68596A294489B29963F3E7236C27
:1057A0001B68596A294489B2D963ECE7236C1B68EA
:1057B000596A294489B21964E5E7236C1B68596A60
:1057C000294489B29965DEE710B50446FFF768FF02
:1057D000032363760123A37641F288312046FFF745
:1057E000B4FF10BDC3688B422FDB83688B422CDC77
:1057F00043688B4229D070B50C460546FFF750FF31
:105800002B6C1B685E6A04236B76AC626968A142EC
:10581000ACBF002101212974AB7E012B09D02B6D77
:1058200098470123AB7642F210712846FFF78DFFAF
:1058300070BD2B6D984769692B6C1B685B6AF61A03
:1058400031442846FFF781FFF2E7704710B5044660
:1058500001740223437601238376036D984742F255
:1058600010712046FFF771FF10BD01B9704738B5C0
:105870000D460446FFF714FFA37E012B12D1002D25
:10588000D4BF002301232374002DB8BF6D4265628D
:10589000236D984701236376A37661692046FFF75D
:1058A00054FF38BD002BFCD1002DD4BF00230123B1
:1058B0002374002DB8BF6D426562236D98470123A4
:1058C0006376A37642F210712046FFF73EFFE8E7C9
:1058D00010B50446FFF7E4FE236D98470023637676
:1058E0000122A27623762374FEF7B8FCE06142F22F
:1058F00010712046FFF729FF10BD10B50446FFF7D1
:10590000DBFE637E042B00F2E080DFE803F003544B
:1059100084D79F00E37EA3B1012B40F0D680E378CB
:10592000A3B3FEF79BFCE369C01AB0F57A7F3AD2C5
:10593000E36C20469847616949002046FFF705FF60
:10594000C3E0E3787BB9FEF789FCE369C01A47F24C
:105950002F53984216D8E36C204698476169204639
:10596000FFF7F3FEB1E0237CB3FA83F35B09237402
:10597000FEF774FCE0610123E37664212046FFF723
:10598000E4FEA2E02046FFF71FFF9EE001232376FE
:1059900000236360E3760323637642F210712046AE
:1059A000FFF7D3FE91E00323637642F210712046A5
:1059B000FFF7CBFE89E0237E33B3237883B9636A94
:1059C000DBB1E36C20469847636A013B63627BB9B5
:1059D0000323637642F210712046FFF7B6FE74E0AF
:1059E0000323637642F210712046FFF7AEFE6CE0AF
:1059F00061692046FFF7A9FE67E0032363760A2169
:105A00002046FFF7A2FE60E0032363760A212046CA
:105A1000FFF79BFE59E0237E8BB123783BB9E36C03
:105A20002046984761692046FFF78FFE4DE003232B
:105A3000637642F210712046FFF787FE45E00323AC
:105A400063760A212046FFF780FE3EE0237E73B393
:105A50002378A3B9A36A6268934220D09342D4BF4B
:105A6000002301232374E36C20469847A26A6368ED
:105A70009A420CD061692046FFF767FE25E00323B8
:105A8000637642F210712046FFF75FFE1DE00323AC
:105A9000637642F210712046FFF757FE15E00323AC
:105AA000637642F210712046FFF74FFE0DE00323AC
:105AB00063760A212046FFF748FE06E0636D9847AB
:105AC0002046FFF7EDFD0023A37610BD10B5044678
:105AD0000E4B1B6C834204D00D4B1B6CA3420AD0AF
